{
  "contractName": "PackageStore",
  "abi": [
    {
      "inputs": [],
      "payable": false,
      "stateMutability": "nonpayable",
      "type": "constructor"
    },
    {
      "anonymous": false,
      "inputs": [
        {
          "indexed": false,
          "internalType": "string",
          "name": "oldName",
          "type": "string"
        },
        {
          "indexed": false,
          "internalType": "string",
          "name": "fileName",
          "type": "string"
        },
        {
          "indexed": false,
          "internalType": "string",
          "name": "imgHash",
          "type": "string"
        }
      ],
      "name": "EditPackage",
      "type": "event"
    },
    {
      "anonymous": false,
      "inputs": [
        {
          "indexed": false,
          "internalType": "string",
          "name": "fileName",
          "type": "string"
        }
      ],
      "name": "deletePackage",
      "type": "event"
    },
    {
      "anonymous": false,
      "inputs": [
        {
          "indexed": false,
          "internalType": "string",
          "name": "fileName",
          "type": "string"
        },
        {
          "indexed": false,
          "internalType": "string",
          "name": "fileVersion",
          "type": "string"
        }
      ],
      "name": "deletePackageVersion",
      "type": "event"
    },
    {
      "anonymous": false,
      "inputs": [
        {
          "indexed": false,
          "internalType": "string",
          "name": "fileName",
          "type": "string"
        },
        {
          "indexed": false,
          "internalType": "string",
          "name": "fileVersion",
          "type": "string"
        }
      ],
      "name": "editPackageVersionEvent",
      "type": "event"
    },
    {
      "anonymous": false,
      "inputs": [
        {
          "indexed": false,
          "internalType": "string",
          "name": "fileName",
          "type": "string"
        },
        {
          "indexed": false,
          "internalType": "string",
          "name": "fileVersion",
          "type": "string"
        }
      ],
      "name": "newPackageEvent",
      "type": "event"
    },
    {
      "anonymous": false,
      "inputs": [
        {
          "indexed": false,
          "internalType": "string",
          "name": "fileName",
          "type": "string"
        },
        {
          "indexed": false,
          "internalType": "string",
          "name": "fileVersion",
          "type": "string"
        }
      ],
      "name": "newPackageVersionEvent",
      "type": "event"
    },
    {
      "constant": true,
      "inputs": [],
      "name": "isAnOwnerOrAdminOrUser",
      "outputs": [
        {
          "internalType": "uint256",
          "name": "",
          "type": "uint256"
        }
      ],
      "payable": false,
      "stateMutability": "view",
      "type": "function"
    },
    {
      "constant": true,
      "inputs": [
        {
          "internalType": "address",
          "name": "_user",
          "type": "address"
        }
      ],
      "name": "isAnOwnerOrAdminOrUser",
      "outputs": [
        {
          "internalType": "uint256",
          "name": "",
          "type": "uint256"
        }
      ],
      "payable": false,
      "stateMutability": "view",
      "type": "function"
    },
    {
      "constant": false,
      "inputs": [
        {
          "internalType": "address",
          "name": "_mainOwner",
          "type": "address"
        }
      ],
      "name": "changeMainOwner",
      "outputs": [],
      "payable": false,
      "stateMutability": "nonpayable",
      "type": "function"
    },
    {
      "constant": false,
      "inputs": [
        {
          "internalType": "address",
          "name": "_admin",
          "type": "address"
        }
      ],
      "name": "addAnAdmin",
      "outputs": [],
      "payable": false,
      "stateMutability": "nonpayable",
      "type": "function"
    },
    {
      "constant": false,
      "inputs": [
        {
          "internalType": "uint256",
          "name": "index",
          "type": "uint256"
        }
      ],
      "name": "removeAnAdmin",
      "outputs": [],
      "payable": false,
      "stateMutability": "nonpayable",
      "type": "function"
    },
    {
      "constant": false,
      "inputs": [
        {
          "internalType": "string",
          "name": "_fileHash",
          "type": "string"
        },
        {
          "internalType": "string",
          "name": "_imgHash",
          "type": "string"
        },
        {
          "internalType": "string",
          "name": "_fileName",
          "type": "string"
        },
        {
          "internalType": "string",
          "name": "_fileVersion",
          "type": "string"
        },
        {
          "internalType": "uint256",
          "name": "_date",
          "type": "uint256"
        }
      ],
      "name": "addNewPackage",
      "outputs": [],
      "payable": false,
      "stateMutability": "nonpayable",
      "type": "function"
    },
    {
      "constant": false,
      "inputs": [
        {
          "internalType": "string",
          "name": "_fileHash",
          "type": "string"
        },
        {
          "internalType": "string",
          "name": "_fileName",
          "type": "string"
        },
        {
          "internalType": "string",
          "name": "_fileVersion",
          "type": "string"
        },
        {
          "internalType": "uint256",
          "name": "_date",
          "type": "uint256"
        }
      ],
      "name": "addNewVersion",
      "outputs": [],
      "payable": false,
      "stateMutability": "nonpayable",
      "type": "function"
    },
    {
      "constant": false,
      "inputs": [
        {
          "internalType": "string",
          "name": "_fileName",
          "type": "string"
        },
        {
          "internalType": "uint256",
          "name": "index",
          "type": "uint256"
        },
        {
          "internalType": "string",
          "name": "_newName",
          "type": "string"
        },
        {
          "internalType": "string",
          "name": "_imgHash",
          "type": "string"
        },
        {
          "internalType": "bool",
          "name": "saveNewName",
          "type": "bool"
        },
        {
          "internalType": "bool",
          "name": "saveNewImg",
          "type": "bool"
        }
      ],
      "name": "changePackageNameAndImage",
      "outputs": [],
      "payable": false,
      "stateMutability": "nonpayable",
      "type": "function"
    },
    {
      "constant": false,
      "inputs": [
        {
          "internalType": "string",
          "name": "_fileName",
          "type": "string"
        },
        {
          "internalType": "uint256",
          "name": "index",
          "type": "uint256"
        }
      ],
      "name": "deleteAPackage",
      "outputs": [],
      "payable": false,
      "stateMutability": "nonpayable",
      "type": "function"
    },
    {
      "constant": false,
      "inputs": [
        {
          "internalType": "string",
          "name": "_fileName",
          "type": "string"
        },
        {
          "internalType": "string",
          "name": "_fileVersion",
          "type": "string"
        },
        {
          "internalType": "uint256",
          "name": "index",
          "type": "uint256"
        }
      ],
      "name": "deleteAPackageVersion",
      "outputs": [],
      "payable": false,
      "stateMutability": "nonpayable",
      "type": "function"
    },
    {
      "constant": true,
      "inputs": [],
      "name": "getAdminsCount",
      "outputs": [
        {
          "internalType": "uint256",
          "name": "",
          "type": "uint256"
        }
      ],
      "payable": false,
      "stateMutability": "view",
      "type": "function"
    },
    {
      "constant": true,
      "inputs": [],
      "name": "getPackagescount",
      "outputs": [
        {
          "internalType": "uint256",
          "name": "",
          "type": "uint256"
        }
      ],
      "payable": false,
      "stateMutability": "view",
      "type": "function"
    },
    {
      "constant": true,
      "inputs": [
        {
          "internalType": "uint256",
          "name": "_index",
          "type": "uint256"
        }
      ],
      "name": "getAdmin",
      "outputs": [
        {
          "internalType": "address",
          "name": "",
          "type": "address"
        }
      ],
      "payable": false,
      "stateMutability": "view",
      "type": "function"
    },
    {
      "constant": true,
      "inputs": [
        {
          "internalType": "uint256",
          "name": "index",
          "type": "uint256"
        }
      ],
      "name": "getPackageInfo",
      "outputs": [
        {
          "internalType": "string",
          "name": "",
          "type": "string"
        },
        {
          "internalType": "string",
          "name": "",
          "type": "string"
        },
        {
          "internalType": "string",
          "name": "",
          "type": "string"
        },
        {
          "internalType": "string",
          "name": "",
          "type": "string"
        },
        {
          "internalType": "bool",
          "name": "canEdit",
          "type": "bool"
        },
        {
          "internalType": "address",
          "name": "owner",
          "type": "address"
        }
      ],
      "payable": false,
      "stateMutability": "view",
      "type": "function"
    },
    {
      "constant": true,
      "inputs": [
        {
          "internalType": "string",
          "name": "_fileName",
          "type": "string"
        },
        {
          "internalType": "string",
          "name": "_fileVersion",
          "type": "string"
        }
      ],
      "name": "getPackageVersionHash",
      "outputs": [
        {
          "internalType": "string",
          "name": "",
          "type": "string"
        }
      ],
      "payable": false,
      "stateMutability": "view",
      "type": "function"
    }
  ],
  "bytecode": "0x608060405234801561001057600080fd5b50336000806101000a81548173ffffffffffffffffffffffffffffffffffffffff021916908373ffffffffffffffffffffffffffffffffffffffff16021790555061598680620000616000396000f3fe608060405234801561001057600080fd5b50600436106100f55760003560e01c8063572e6f38116100975780638bf2f84f116100665780638bf2f84f14610bbc578063e804152214610e46578063f00b9a7014610e64578063fe09362114610f29576100f5565b8063572e6f381461072c57806359aad1821461077057806364e4ffb41461093b5780636987cd9814610b64576100f5565b806318a6fd9e116100d357806318a6fd9e146103a157806328609940146103bf578063453fa41d146103dd5780634e867409146105d0576100f5565b8063060789c6146100fa578063111fd88b1461030557806311ac27dd14610373575b600080fd5b610303600480360360c081101561011057600080fd5b810190808035906020019064010000000081111561012d57600080fd5b82018360208201111561013f57600080fd5b8035906020019184600183028401116401000000008311171561016157600080fd5b91908080601f016020809104026020016040519081016040528093929190818152602001838380828437600081840152601f19601f82011690508083019250505050505050919291929080359060200190929190803590602001906401000000008111156101ce57600080fd5b8201836020820111156101e057600080fd5b8035906020019184600183028401116401000000008311171561020257600080fd5b91908080601f016020809104026020016040519081016040528093929190818152602001838380828437600081840152601f19601f8201169050808301925050505050505091929192908035906020019064010000000081111561026557600080fd5b82018360208201111561027757600080fd5b8035906020019184600183028401116401000000008311171561029957600080fd5b91908080601f016020809104026020016040519081016040528093929190818152602001838380828437600081840152601f19601f820116905080830192505050505050509192919290803515159060200190929190803515159060200190929190505050610f6d565b005b6103316004803603602081101561031b57600080fd5b8101908080359060200190929190505050611885565b604051808273ffffffffffffffffffffffffffffffffffffffff1673ffffffffffffffffffffffffffffffffffffffff16815260200191505060405180910390f35b61039f6004803603602081101561038957600080fd5b81019080803590602001909291905050506118c6565b005b6103a9611abc565b6040518082815260200191505060405180910390f35b6103c7611ac9565b6040518082815260200191505060405180910390f35b6105ce600480360360808110156103f357600080fd5b810190808035906020019064010000000081111561041057600080fd5b82018360208201111561042257600080fd5b8035906020019184600183028401116401000000008311171561044457600080fd5b91908080601f016020809104026020016040519081016040528093929190818152602001838380828437600081840152601f19601f820116905080830192505050505050509192919290803590602001906401000000008111156104a757600080fd5b8201836020820111156104b957600080fd5b803590602001918460018302840111640100000000831117156104db57600080fd5b91908080601f016020809104026020016040519081016040528093929190818152602001838380828437600081840152601f19601f8201169050808301925050505050505091929192908035906020019064010000000081111561053e57600080fd5b82018360208201111561055057600080fd5b8035906020019184600183028401116401000000008311171561057257600080fd5b91908080601f016020809104026020016040519081016040528093929190818152602001838380828437600081840152601f19601f82011690508083019250505050505050919291929080359060200190929190505050611ad9565b005b61072a600480360360608110156105e657600080fd5b810190808035906020019064010000000081111561060357600080fd5b82018360208201111561061557600080fd5b8035906020019184600183028401116401000000008311171561063757600080fd5b91908080601f016020809104026020016040519081016040528093929190818152602001838380828437600081840152601f19601f8201169050808301925050505050505091929192908035906020019064010000000081111561069a57600080fd5b8201836020820111156106ac57600080fd5b803590602001918460018302840111640100000000831117156106ce57600080fd5b91908080601f016020809104026020016040519081016040528093929190818152602001838380828437600081840152601f19601f82011690508083019250505050505050919291929080359060200190929190505050612505565b005b61076e6004803603602081101561074257600080fd5b81019080803573ffffffffffffffffffffffffffffffffffffffff169060200190929190505050612bdd565b005b6108c06004803603604081101561078657600080fd5b81019080803590602001906401000000008111156107a357600080fd5b8201836020820111156107b557600080fd5b803590602001918460018302840111640100000000831117156107d757600080fd5b91908080601f016020809104026020016040519081016040528093929190818152602001838380828437600081840152601f19601f8201169050808301925050505050505091929192908035906020019064010000000081111561083a57600080fd5b82018360208201111561084c57600080fd5b8035906020019184600183028401116401000000008311171561086e57600080fd5b91908080601f016020809104026020016040519081016040528093929190818152602001838380828437600081840152601f19601f820116905080830192505050505050509192919290505050612dee565b6040518080602001828103825283818151815260200191508051906020019080838360005b838110156109005780820151818401526020810190506108e5565b50505050905090810190601f16801561092d5780820380516001836020036101000a031916815260200191505b509250505060405180910390f35b6109676004803603602081101561095157600080fd5b81019080803590602001909291905050506131bd565b6040518080602001806020018060200180602001871515151581526020018673ffffffffffffffffffffffffffffffffffffffff1673ffffffffffffffffffffffffffffffffffffffff16815260200185810385528b818151815260200191508051906020019080838360005b838110156109ef5780820151818401526020810190506109d4565b50505050905090810190601f168015610a1c5780820380516001836020036101000a031916815260200191505b5085810384528a818151815260200191508051906020019080838360005b83811015610a55578082015181840152602081019050610a3a565b50505050905090810190601f168015610a825780820380516001836020036101000a031916815260200191505b50858103835289818151815260200191508051906020019080838360005b83811015610abb578082015181840152602081019050610aa0565b50505050905090810190601f168015610ae85780820380516001836020036101000a031916815260200191505b50858103825288818151815260200191508051906020019080838360005b83811015610b21578082015181840152602081019050610b06565b50505050905090810190601f168015610b4e5780820380516001836020036101000a031916815260200191505b509a505050505050505050505060405180910390f35b610ba660048036036020811015610b7a57600080fd5b81019080803573ffffffffffffffffffffffffffffffffffffffff16906020019092919050505061374b565b6040518082815260200191505060405180910390f35b610e44600480360360a0811015610bd257600080fd5b8101908080359060200190640100000000811115610bef57600080fd5b820183602082011115610c0157600080fd5b80359060200191846001830284011164010000000083111715610c2357600080fd5b91908080601f016020809104026020016040519081016040528093929190818152602001838380828437600081840152601f19601f82011690508083019250505050505050919291929080359060200190640100000000811115610c8657600080fd5b820183602082011115610c9857600080fd5b80359060200191846001830284011164010000000083111715610cba57600080fd5b91908080601f016020809104026020016040519081016040528093929190818152602001838380828437600081840152601f19601f82011690508083019250505050505050919291929080359060200190640100000000811115610d1d57600080fd5b820183602082011115610d2f57600080fd5b80359060200191846001830284011164010000000083111715610d5157600080fd5b91908080601f016020809104026020016040519081016040528093929190818152602001838380828437600081840152601f19601f82011690508083019250505050505050919291929080359060200190640100000000811115610db457600080fd5b820183602082011115610dc657600080fd5b80359060200191846001830284011164010000000083111715610de857600080fd5b91908080601f016020809104026020016040519081016040528093929190818152602001838380828437600081840152601f19601f82011690508083019250505050505050919291929080359060200190929190505050613817565b005b610e4e614104565b6040518082815260200191505060405180910390f35b610f2760048036036040811015610e7a57600080fd5b8101908080359060200190640100000000811115610e9757600080fd5b820183602082011115610ea957600080fd5b80359060200191846001830284011164010000000083111715610ecb57600080fd5b91908080601f016020809104026020016040519081016040528093929190818152602001838380828437600081840152601f19601f82011690508083019250505050505050919291929080359060200190929190505050614111565b005b610f6b60048036036020811015610f3f57600080fd5b81019080803573ffffffffffffffffffffffffffffffffffffffff1690602001909291905050506145f4565b005b85600115156004826040518082805190602001908083835b60208310610fa85780518252602082019150602081019050602083039250610f85565b6001836020036101000a038019825116818451168082178552505050505050905001915050908152602001604051809103902060000160009054906101000a900460ff16151514611061576040517f08c379a00000000000000000000000000000000000000000000000000000000081526004018080602001828103825260158152602001807f5061636b61676520646f65736e2774206578697374000000000000000000000081525060200191505060405180910390fd5b84600115156004826040518082805190602001908083835b6020831061109c5780518252602082019150602081019050602083039250611079565b6001836020036101000a038019825116818451168082178552505050505050905001915050908152602001604051809103902060000160009054906101000a900460ff1615151415611156576040517f08c379a00000000000000000000000000000000000000000000000000000000081526004018080602001828103825260168152602001807f5061636b61676520616c7265616479206578697374730000000000000000000081525060200191505060405180910390fd5b873373ffffffffffffffffffffffffffffffffffffffff166004826040518082805190602001908083835b602083106111a45780518252602082019150602081019050602083039250611181565b6001836020036101000a038019825116818451168082178552505050505050905001915050908152602001604051809103902060020160009054906101000a900473ffffffffffffffffffffffffffffffffffffffff1673ffffffffffffffffffffffffffffffffffffffff161480611225575060016112233361374b565b145b80611238575060006112363361374b565b145b61128d576040517f08c379a00000000000000000000000000000000000000000000000000000000081526004018080602001828103825260508152602001806159026050913960600191505060405180910390fd5b336000809050813b90506000811480156112f7575060001515600560008473ffffffffffffffffffffffffffffffffffffffff1673ffffffffffffffffffffffffffffffffffffffff16815260200190815260200160002060009054906101000a900460ff161515145b61130057600080fd5b60011515600560003373ffffffffffffffffffffffffffffffffffffffff1673ffffffffffffffffffffffffffffffffffffffff16815260200190815260200160002060009054906101000a9050505085156113d8578760048c6040518082805190602001908083835b6020831061138d578051825260208201915060208101905060208303925061136a565b6001836020036101000a038019825116818451168082178552505050505050905001915050908152602001604051809103902060010190805190602001906113d692919061553c565b505b86156116b25760048b6040518082805190602001908083835b6020831061141457805182526020820191506020810190506020830392506113f1565b6001836020036101000a038019825116818451168082178552505050505050905001915050908152602001604051809103902060048a6040518082805190602001908083835b6020831061147d578051825260208201915060208101905060208303925061145a565b6001836020036101000a03801982511681845116808217855250505050505090500191505090815260200160405180910390206000820160009054906101000a900460ff168160000160006101000a81548160ff021916908315150217905550600182018160010190805460018160011615610100020316600290046115049291906155bc565b506002820160009054906101000a900473ffffffffffffffffffffffffffffffffffffffff168160020160006101000a81548173ffffffffffffffffffffffffffffffffffffffff021916908373ffffffffffffffffffffffffffffffffffffffff1602179055506003820181600301908054611582929190615643565b50600482018160040190805460018160011615610100020316600290046115aa9291906155bc565b509050508860038b815481106115bc57fe5b9060005260206000200190805190602001906115d992919061553c565b5060048b6040518082805190602001908083835b6020831061161057805182526020820191506020810190506020830392506115ed565b6001836020036101000a0380198251168184511680821785525050505050509050019150509081526020016040518091039020600080820160006101000a81549060ff021916905560018201600061166891906156b3565b6002820160006101000a81549073ffffffffffffffffffffffffffffffffffffffff021916905560038201600061169f91906156fb565b6004820160006116af91906156b3565b50505b60001515600560003373ffffffffffffffffffffffffffffffffffffffff1673ffffffffffffffffffffffffffffffffffffffff16815260200190815260200160002060009054906101000a905050507f059b9f28377c7cf45350e6cd5a50d612f35dbc7a06aea16a9f27d95c12da4e138b8a8a60405180806020018060200180602001848103845287818151815260200191508051906020019080838360005b8381101561176e578082015181840152602081019050611753565b50505050905090810190601f16801561179b5780820380516001836020036101000a031916815260200191505b50848103835286818151815260200191508051906020019080838360005b838110156117d45780820151818401526020810190506117b9565b50505050905090810190601f1680156118015780820380516001836020036101000a031916815260200191505b50848103825285818151815260200191508051906020019080838360005b8381101561183a57808201518184015260208101905061181f565b50505050905090810190601f1680156118675780820380516001836020036101000a031916815260200191505b50965050505050505060405180910390a15050505050505050505050565b60006001828154811061189457fe5b9060005260206000200160009054906101000a900473ffffffffffffffffffffffffffffffffffffffff169050919050565b3373ffffffffffffffffffffffffffffffffffffffff166000809054906101000a900473ffffffffffffffffffffffffffffffffffffffff1673ffffffffffffffffffffffffffffffffffffffff161461196b576040517f08c379a00000000000000000000000000000000000000000000000000000000081526004018080602001828103825260358152602001806158cd6035913960400191505060405180910390fd5b6000819050600260006001848154811061198157fe5b9060005260206000200160009054906101000a900473ffffffffffffffffffffffffffffffffffffffff1673ffffffffffffffffffffffffffffffffffffffff1673ffffffffffffffffffffffffffffffffffffffff16815260200190815260200160002060006101000a81549060ff02191690555b6001808054905003811015611aa257600180820181548110611a1557fe5b9060005260206000200160009054906101000a900473ffffffffffffffffffffffffffffffffffffffff1660018281548110611a4d57fe5b9060005260206000200160006101000a81548173ffffffffffffffffffffffffffffffffffffffff021916908373ffffffffffffffffffffffffffffffffffffffff16021790555080806001019150506119f7565b6001805480919060019003611ab7919061571c565b505050565b6000600380549050905090565b6000611ad43361374b565b905090565b82600115156004826040518082805190602001908083835b60208310611b145780518252602082019150602081019050602083039250611af1565b6001836020036101000a038019825116818451168082178552505050505050905001915050908152602001604051809103902060000160009054906101000a900460ff16151514611bcd576040517f08c379a00000000000000000000000000000000000000000000000000000000081526004018080602001828103825260158152602001807f5061636b61676520646f65736e2774206578697374000000000000000000000081525060200191505060405180910390fd5b8383600115156004836040518082805190602001908083835b60208310611c095780518252602082019150602081019050602083039250611be6565b6001836020036101000a0380198251168184511680821785525050505050509050019150509081526020016040518091039020600501826040518082805190602001908083835b60208310611c735780518252602082019150602081019050602083039250611c50565b6001836020036101000a038019825116818451168082178552505050505050905001915050908152602001604051809103902060030160009054906101000a900460ff1615151415611d2d576040517f08c379a00000000000000000000000000000000000000000000000000000000081526004018080602001828103825260128152602001807f56657273696f6e20646f6573206578697374000000000000000000000000000081525060200191505060405180910390fd5b853373ffffffffffffffffffffffffffffffffffffffff166004826040518082805190602001908083835b60208310611d7b5780518252602082019150602081019050602083039250611d58565b6001836020036101000a038019825116818451168082178552505050505050905001915050908152602001604051809103902060020160009054906101000a900473ffffffffffffffffffffffffffffffffffffffff1673ffffffffffffffffffffffffffffffffffffffff161480611dfc57506001611dfa3361374b565b145b80611e0f57506000611e0d3361374b565b145b611e64576040517f08c379a00000000000000000000000000000000000000000000000000000000081526004018080602001828103825260508152602001806159026050913960600191505060405180910390fd5b336000809050813b9050600081148015611ece575060001515600560008473ffffffffffffffffffffffffffffffffffffffff1673ffffffffffffffffffffffffffffffffffffffff16815260200190815260200160002060009054906101000a900460ff161515145b611ed757600080fd5b60011515600560003373ffffffffffffffffffffffffffffffffffffffff1673ffffffffffffffffffffffffffffffffffffffff16815260200190815260200160002060009054906101000a905050506004896040518082805190602001908083835b60208310611f5d5780518252602082019150602081019050602083039250611f3a565b6001836020036101000a0380198251168184511680821785525050505050509050019150509081526020016040518091039020600301889080600181540180825580915050906001820390600052602060002001600090919290919091509080519060200190611fce92919061553c565b50506121c260048a6040518082805190602001908083835b602083106120095780518252602082019150602081019050602083039250611fe6565b6001836020036101000a03801982511681845116808217855250505050505090500191505090815260200160405180910390206004018054600181600116156101000203166002900480601f0160208091040260200160405190810160405280929190818152602001828054600181600116156101000203166002900480156120d35780601f106120a8576101008083540402835291602001916120d3565b820191906000526020600020905b8154815290600101906020018083116120b657829003601f168201915b50505050506040518060400160405280600181526020017f2c0000000000000000000000000000000000000000000000000000000000000081525061218660048d6040518082805190602001908083835b602083106121475780518252602082019150602081019050602083039250612124565b6001836020036101000a0380198251168184511680821785525050505050509050019150509081526020016040518091039020600301805490506146dc565b6040518060400160405280600281526020017f3a200000000000000000000000000000000000000000000000000000000000008152508c61480f565b60048a6040518082805190602001908083835b602083106121f857805182526020820191506020810190506020830392506121d5565b6001836020036101000a0380198251168184511680821785525050505050509050019150509081526020016040518091039020600401908051906020019061224192919061553c565b5060405180608001604052808b81526020018981526020018881526020016001151581525060048a6040518082805190602001908083835b6020831061229c5780518252602082019150602081019050602083039250612279565b6001836020036101000a0380198251168184511680821785525050505050509050019150509081526020016040518091039020600501896040518082805190602001908083835b6020831061230657805182526020820191506020810190506020830392506122e3565b6001836020036101000a03801982511681845116808217855250505050505090500191505090815260200160405180910390206000820151816000019080519060200190612355929190615748565b506020820151816001019080519060200190612372929190615748565b506040820151816002015560608201518160030160006101000a81548160ff02191690831515021790555090505060001515600560003373ffffffffffffffffffffffffffffffffffffffff1673ffffffffffffffffffffffffffffffffffffffff16815260200190815260200160002060009054906101000a905050507fa71f9dce42ef3a0e7979e84a0569a355cb110eeccef776976f1f179a1e8438778989604051808060200180602001838103835285818151815260200191508051906020019080838360005b8381101561245757808201518184015260208101905061243c565b50505050905090810190601f1680156124845780820380516001836020036101000a031916815260200191505b50838103825284818151815260200191508051906020019080838360005b838110156124bd5780820151818401526020810190506124a2565b50505050905090810190601f1680156124ea5780820380516001836020036101000a031916815260200191505b5094505050505060405180910390a150505050505050505050565b82600115156004826040518082805190602001908083835b60208310612540578051825260208201915060208101905060208303925061251d565b6001836020036101000a038019825116818451168082178552505050505050905001915050908152602001604051809103902060000160009054906101000a900460ff161515146125f9576040517f08c379a00000000000000000000000000000000000000000000000000000000081526004018080602001828103825260158152602001807f5061636b61676520646f65736e2774206578697374000000000000000000000081525060200191505060405180910390fd5b8383600115156004836040518082805190602001908083835b602083106126355780518252602082019150602081019050602083039250612612565b6001836020036101000a0380198251168184511680821785525050505050509050019150509081526020016040518091039020600501826040518082805190602001908083835b6020831061269f578051825260208201915060208101905060208303925061267c565b6001836020036101000a038019825116818451168082178552505050505050905001915050908152602001604051809103902060030160009054906101000a900460ff16151514612758576040517f08c379a00000000000000000000000000000000000000000000000000000000081526004018080602001828103825260158152602001807f56657273696f6e20646f65736e2774206578697374000000000000000000000081525060200191505060405180910390fd5b853373ffffffffffffffffffffffffffffffffffffffff166004826040518082805190602001908083835b602083106127a65780518252602082019150602081019050602083039250612783565b6001836020036101000a038019825116818451168082178552505050505050905001915050908152602001604051809103902060020160009054906101000a900473ffffffffffffffffffffffffffffffffffffffff1673ffffffffffffffffffffffffffffffffffffffff161480612827575060016128253361374b565b145b8061283a575060006128383361374b565b145b61288f576040517f08c379a00000000000000000000000000000000000000000000000000000000081526004018080602001828103825260508152602001806159026050913960600191505060405180910390fd5b336000809050813b90506000811480156128f9575060001515600560008473ffffffffffffffffffffffffffffffffffffffff1673ffffffffffffffffffffffffffffffffffffffff16815260200190815260200160002060009054906101000a900460ff161515145b61290257600080fd5b60011515600560003373ffffffffffffffffffffffffffffffffffffffff1673ffffffffffffffffffffffffffffffffffffffff16815260200190815260200160002060009054906101000a9050505061295e89886000614ad1565b6004896040518082805190602001908083835b602083106129945780518252602082019150602081019050602083039250612971565b6001836020036101000a0380198251168184511680821785525050505050509050019150509081526020016040518091039020600501886040518082805190602001908083835b602083106129fe57805182526020820191506020810190506020830392506129db565b6001836020036101000a038019825116818451168082178552505050505050905001915050908152602001604051809103902060008082016000612a4291906156b3565b600182016000612a5291906156b3565b60028201600090556003820160006101000a81549060ff02191690555050612a7989614d9a565b60001515600560003373ffffffffffffffffffffffffffffffffffffffff1673ffffffffffffffffffffffffffffffffffffffff16815260200190815260200160002060009054906101000a905050507f3102b15beae284a7445c91aa5525cb4a9c32b0c8687d53988678ce6deeddf7638989604051808060200180602001838103835285818151815260200191508051906020019080838360005b83811015612b30578082015181840152602081019050612b15565b50505050905090810190601f168015612b5d5780820380516001836020036101000a031916815260200191505b50838103825284818151815260200191508051906020019080838360005b83811015612b96578082015181840152602081019050612b7b565b50505050905090810190601f168015612bc35780820380516001836020036101000a031916815260200191505b5094505050505060405180910390a1505050505050505050565b3373ffffffffffffffffffffffffffffffffffffffff166000809054906101000a900473ffffffffffffffffffffffffffffffffffffffff1673ffffffffffffffffffffffffffffffffffffffff1614612c82576040517f08c379a00000000000000000000000000000000000000000000000000000000081526004018080602001828103825260358152602001806158cd6035913960400191505060405180910390fd5b8060001515600260008373ffffffffffffffffffffffffffffffffffffffff1673ffffffffffffffffffffffffffffffffffffffff16815260200190815260200160002060009054906101000a900460ff16151514612d2c576040517f08c379a00000000000000000000000000000000000000000000000000000000081526004018080602001828103825260358152602001806158cd6035913960400191505060405180910390fd5b60018290806001815401808255809150509060018203906000526020600020016000909192909190916101000a81548173ffffffffffffffffffffffffffffffffffffffff021916908373ffffffffffffffffffffffffffffffffffffffff160217905550506001600260008473ffffffffffffffffffffffffffffffffffffffff1673ffffffffffffffffffffffffffffffffffffffff16815260200190815260200160002060006101000a81548160ff0219169083151502179055505050565b606082600115156004826040518082805190602001908083835b60208310612e2b5780518252602082019150602081019050602083039250612e08565b6001836020036101000a038019825116818451168082178552505050505050905001915050908152602001604051809103902060000160009054906101000a900460ff16151514612ee4576040517f08c379a00000000000000000000000000000000000000000000000000000000081526004018080602001828103825260158152602001807f5061636b61676520646f65736e2774206578697374000000000000000000000081525060200191505060405180910390fd5b8383600115156004836040518082805190602001908083835b60208310612f205780518252602082019150602081019050602083039250612efd565b6001836020036101000a0380198251168184511680821785525050505050509050019150509081526020016040518091039020600501826040518082805190602001908083835b60208310612f8a5780518252602082019150602081019050602083039250612f67565b6001836020036101000a038019825116818451168082178552505050505050905001915050908152602001604051809103902060030160009054906101000a900460ff16151514613043576040517f08c379a00000000000000000000000000000000000000000000000000000000081526004018080602001828103825260158152602001807f56657273696f6e20646f65736e2774206578697374000000000000000000000081525060200191505060405180910390fd5b6004866040518082805190602001908083835b602083106130795780518252602082019150602081019050602083039250613056565b6001836020036101000a0380198251168184511680821785525050505050509050019150509081526020016040518091039020600501856040518082805190602001908083835b602083106130e357805182526020820191506020810190506020830392506130c0565b6001836020036101000a03801982511681845116808217855250505050505090500191505090815260200160405180910390206000018054600181600116156101000203166002900480601f0160208091040260200160405190810160405280929190818152602001828054600181600116156101000203166002900480156131ad5780601f10613182576101008083540402835291602001916131ad565b820191906000526020600020905b81548152906001019060200180831161319057829003601f168201915b5050505050935050505092915050565b606080606080600080600080905060006131d63361374b565b905060008114806131e75750600181145b806132c757503373ffffffffffffffffffffffffffffffffffffffff16600460038b8154811061321357fe5b9060005260206000200160405180828054600181600116156101000203166002900480156132785780601f10613256576101008083540402835291820191613278565b820191906000526020600020905b815481529060010190602001808311613264575b5050915050908152602001604051809103902060020160009054906101000a900473ffffffffffffffffffffffffffffffffffffffff1673ffffffffffffffffffffffffffffffffffffffff16145b156132d157600191505b600389815481106132de57fe5b90600052602060002001600460038b815481106132f757fe5b90600052602060002001604051808280546001816001161561010002031660029004801561335c5780601f1061333a57610100808354040283529182019161335c565b820191906000526020600020905b815481529060010190602001808311613348575b50509150509081526020016040518091039020600101600460038c8154811061338157fe5b9060005260206000200160405180828054600181600116156101000203166002900480156133e65780601f106133c45761010080835404028352918201916133e6565b820191906000526020600020905b8154815290600101906020018083116133d2575b505091505090815260200160405180910390206004016134b460038d8154811061340c57fe5b906000526020600020018054600181600116156101000203166002900480601f0160208091040260200160405190810160405280929190818152602001828054600181600116156101000203166002900480156134aa5780601f1061347f576101008083540402835291602001916134aa565b820191906000526020600020905b81548152906001019060200180831161348d57829003601f168201915b50505050506152d5565b85600460038f815481106134c457fe5b9060005260206000200160405180828054600181600116156101000203166002900480156135295780601f10613507576101008083540402835291820191613529565b820191906000526020600020905b815481529060010190602001808311613515575b5050915050908152602001604051809103902060020160009054906101000a900473ffffffffffffffffffffffffffffffffffffffff16858054600181600116156101000203166002900480601f0160208091040260200160405190810160405280929190818152602001828054600181600116156101000203166002900480156135f55780601f106135ca576101008083540402835291602001916135f5565b820191906000526020600020905b8154815290600101906020018083116135d857829003601f168201915b50505050509550848054600181600116156101000203166002900480601f0160208091040260200160405190810160405280929190818152602001828054600181600116156101000203166002900480156136915780601f1061366657610100808354040283529160200191613691565b820191906000526020600020905b81548152906001019060200180831161367457829003601f168201915b50505050509450838054600181600116156101000203166002900480601f01602080910402602001604051908101604052809291908181526020018280546001816001161561010002031660029004801561372d5780601f106137025761010080835404028352916020019161372d565b820191906000526020600020905b81548152906001019060200180831161371057829003601f168201915b50505050509350975097509750975097509750505091939550919395565b60008173ffffffffffffffffffffffffffffffffffffffff166000809054906101000a900473ffffffffffffffffffffffffffffffffffffffff1673ffffffffffffffffffffffffffffffffffffffff1614156137ab5760009050613812565b60011515600260008473ffffffffffffffffffffffffffffffffffffffff1673ffffffffffffffffffffffffffffffffffffffff16815260200190815260200160002060009054906101000a900460ff161515141561380d5760019050613812565b600290505b919050565b82600115156004826040518082805190602001908083835b60208310613852578051825260208201915060208101905060208303925061382f565b6001836020036101000a038019825116818451168082178552505050505050905001915050908152602001604051809103902060000160009054906101000a900460ff161515141561390c576040517f08c379a00000000000000000000000000000000000000000000000000000000081526004018080602001828103825260168152602001807f5061636b61676520616c7265616479206578697374730000000000000000000081525060200191505060405180910390fd5b336000809050813b9050600081148015613976575060001515600560008473ffffffffffffffffffffffffffffffffffffffff1673ffffffffffffffffffffffffffffffffffffffff16815260200190815260200160002060009054906101000a900460ff161515145b61397f57600080fd5b60011515600560003373ffffffffffffffffffffffffffffffffffffffff1673ffffffffffffffffffffffffffffffffffffffff16815260200190815260200160002060009054906101000a90505050336004876040518082805190602001908083835b60208310613a0657805182526020820191506020810190506020830392506139e3565b6001836020036101000a038019825116818451168082178552505050505050905001915050908152602001604051809103902060020160006101000a81548173ffffffffffffffffffffffffffffffffffffffff021916908373ffffffffffffffffffffffffffffffffffffffff160217905550866004876040518082805190602001908083835b60208310613ab15780518252602082019150602081019050602083039250613a8e565b6001836020036101000a03801982511681845116808217855250505050505090500191505090815260200160405180910390206001019080519060200190613afa92919061553c565b506040518060800160405280898152602001868152602001858152602001600115158152506004876040518082805190602001908083835b60208310613b555780518252602082019150602081019050602083039250613b32565b6001836020036101000a0380198251168184511680821785525050505050509050019150509081526020016040518091039020600501866040518082805190602001908083835b60208310613bbf5780518252602082019150602081019050602083039250613b9c565b6001836020036101000a03801982511681845116808217855250505050505090500191505090815260200160405180910390206000820151816000019080519060200190613c0e929190615748565b506020820151816001019080519060200190613c2b929190615748565b506040820151816002015560608201518160030160006101000a81548160ff02191690831515021790555090505060016004876040518082805190602001908083835b60208310613c915780518252602082019150602081019050602083039250613c6e565b6001836020036101000a038019825116818451168082178552505050505050905001915050908152602001604051809103902060000160006101000a81548160ff0219169083151502179055506004866040518082805190602001908083835b60208310613d145780518252602082019150602081019050602083039250613cf1565b6001836020036101000a0380198251168184511680821785525050505050509050019150509081526020016040518091039020600301859080600181540180825580915050906001820390600052602060002001600090919290919091509080519060200190613d8592919061553c565b5050613df0613d9460016146dc565b6040518060400160405280600281526020017f3a2000000000000000000000000000000000000000000000000000000000000081525087604051806020016040528060008152506040518060200160405280600081525061480f565b6004876040518082805190602001908083835b60208310613e265780518252602082019150602081019050602083039250613e03565b6001836020036101000a03801982511681845116808217855250505050505090500191505090815260200160405180910390206004019080519060200190613e6f92919061553c565b506003869080600181540180825580915050906001820390600052602060002001600090919290919091509080519060200190613ead92919061553c565b505060001515600560003373ffffffffffffffffffffffffffffffffffffffff1673ffffffffffffffffffffffffffffffffffffffff16815260200190815260200160002060009054906101000a905050507f224d51c4a843392611f91728c8437c546bb5d9cfdddd4004d457cad38fbca909866004886040518082805190602001908083835b60208310613f575780518252602082019150602081019050602083039250613f34565b6001836020036101000a0380198251168184511680821785525050505050509050019150509081526020016040518091039020600501876040518082805190602001908083835b60208310613fc15780518252602082019150602081019050602083039250613f9e565b6001836020036101000a0380198251168184511680821785525050505050509050019150509081526020016040518091039020600101604051808060200180602001838103835285818151815260200191508051906020019080838360005b8381101561403b578082015181840152602081019050614020565b50505050905090810190601f1680156140685780820380516001836020036101000a031916815260200191505b508381038252848181546001816001161561010002031660029004815260200191508054600181600116156101000203166002900480156140ea5780601f106140bf576101008083540402835291602001916140ea565b820191906000526020600020905b8154815290600101906020018083116140cd57829003601f168201915b505094505050505060405180910390a15050505050505050565b6000600180549050905090565b81600115156004826040518082805190602001908083835b6020831061414c5780518252602082019150602081019050602083039250614129565b6001836020036101000a038019825116818451168082178552505050505050905001915050908152602001604051809103902060000160009054906101000a900460ff16151514614205576040517f08c379a00000000000000000000000000000000000000000000000000000000081526004018080602001828103825260158152602001807f5061636b61676520646f65736e2774206578697374000000000000000000000081525060200191505060405180910390fd5b823373ffffffffffffffffffffffffffffffffffffffff166004826040518082805190602001908083835b602083106142535780518252602082019150602081019050602083039250614230565b6001836020036101000a038019825116818451168082178552505050505050905001915050908152602001604051809103902060020160009054906101000a900473ffffffffffffffffffffffffffffffffffffffff1673ffffffffffffffffffffffffffffffffffffffff1614806142d4575060016142d23361374b565b145b806142e7575060006142e53361374b565b145b61433c576040517f08c379a00000000000000000000000000000000000000000000000000000000081526004018080602001828103825260508152602001806159026050913960600191505060405180910390fd5b336000809050813b90506000811480156143a6575060001515600560008473ffffffffffffffffffffffffffffffffffffffff1673ffffffffffffffffffffffffffffffffffffffff16815260200190815260200160002060009054906101000a900460ff161515145b6143af57600080fd5b60011515600560003373ffffffffffffffffffffffffffffffffffffffff1673ffffffffffffffffffffffffffffffffffffffff16815260200190815260200160002060009054906101000a9050505060046003868154811061440e57fe5b9060005260206000200160405180828054600181600116156101000203166002900480156144735780601f10614451576101008083540402835291820191614473565b820191906000526020600020905b81548152906001019060200180831161445f575b50509150509081526020016040518091039020600080820160006101000a81549060ff02191690556001820160006144ab91906156b3565b6002820160006101000a81549073ffffffffffffffffffffffffffffffffffffffff02191690556003820160006144e291906156fb565b6004820160006144f291906156b3565b505061450086866001614ad1565b60001515600560003373ffffffffffffffffffffffffffffffffffffffff1673ffffffffffffffffffffffffffffffffffffffff16815260200190815260200160002060009054906101000a905050507fb8b9c20e15e0f3a4d13abc0ec736ffc7a04ca4db866cf0800c68f2f112a2918d866040518080602001828103825283818151815260200191508051906020019080838360005b838110156145b2578082015181840152602081019050614597565b50505050905090810190601f1680156145df5780820380516001836020036101000a031916815260200191505b509250505060405180910390a1505050505050565b3373ffffffffffffffffffffffffffffffffffffffff166000809054906101000a900473ffffffffffffffffffffffffffffffffffffffff1673ffffffffffffffffffffffffffffffffffffffff1614614699576040517f08c379a00000000000000000000000000000000000000000000000000000000081526004018080602001828103825260358152602001806158cd6035913960400191505060405180910390fd5b806000806101000a81548173ffffffffffffffffffffffffffffffffffffffff021916908373ffffffffffffffffffffffffffffffffffffffff16021790555050565b60606000821415614724576040518060400160405280600181526020017f3000000000000000000000000000000000000000000000000000000000000000815250905061480a565b6000829050600081905060005b60008214614753578080600101915050600a828161474b57fe5b049150614731565b6060816040519080825280601f01601f1916602001820160405280156147885781602001600182028038833980820191505090505b50905060006001830390505b6000851461480157600a85816147a657fe5b0660300160f81b828280600190039350815181106147c057fe5b60200101907effffffffffffffffffffffffffffffffffffffffffffffffffffffffffffff1916908160001a905350600a85816147f957fe5b049450614794565b81955050505050505b919050565b6060808690506060869050606086905060608690506060869050606081518351855187518951010101016040519080825280601f01601f19166020018201604052801561486b5781602001600182028038833980820191505090505b509050606081905060008090506000809050600090505b88518110156148f05788818151811061489757fe5b602001015160f81c60f81b8383806001019450815181106148b457fe5b60200101907effffffffffffffffffffffffffffffffffffffffffffffffffffffffffffff1916908160001a9053508080600101915050614882565b600090505b87518110156149635787818151811061490a57fe5b602001015160f81c60f81b83838060010194508151811061492757fe5b60200101907effffffffffffffffffffffffffffffffffffffffffffffffffffffffffffff1916908160001a90535080806001019150506148f5565b600090505b86518110156149d65786818151811061497d57fe5b602001015160f81c60f81b83838060010194508151811061499a57fe5b60200101907effffffffffffffffffffffffffffffffffffffffffffffffffffffffffffff1916908160001a9053508080600101915050614968565b600090505b8551811015614a49578581815181106149f057fe5b602001015160f81c60f81b838380600101945081518110614a0d57fe5b60200101907effffffffffffffffffffffffffffffffffffffffffffffffffffffffffffff1916908160001a90535080806001019150506149db565b600090505b8451811015614abc57848181518110614a6357fe5b602001015160f81c60f81b838380600101945081518110614a8057fe5b60200101907effffffffffffffffffffffffffffffffffffffffffffffffffffffffffffff1916908160001a9053508080600101915050614a4e565b82995050505050505050505095945050505050565b60008290508115614b66575b600160038054905003811015614b4b5760036001820181548110614afd57fe5b9060005260206000200160038281548110614b1457fe5b906000526020600020019080546001816001161561010002031660029004614b3d9291906157c8565b508080600101915050614add565b6003805480919060019003614b60919061584f565b50614d94565b5b60016004856040518082805190602001908083835b60208310614b9f5780518252602082019150602081019050602083039250614b7c565b6001836020036101000a03801982511681845116808217855250505050505090500191505090815260200160405180910390206003018054905003811015614d13576004846040518082805190602001908083835b60208310614c175780518252602082019150602081019050602083039250614bf4565b6001836020036101000a03801982511681845116808217855250505050505090500191505090815260200160405180910390206003016001820181548110614c5b57fe5b906000526020600020016004856040518082805190602001908083835b60208310614c9b5780518252602082019150602081019050602083039250614c78565b6001836020036101000a03801982511681845116808217855250505050505090500191505090815260200160405180910390206003018281548110614cdc57fe5b906000526020600020019080546001816001161561010002031660029004614d059291906157c8565b508080600101915050614b67565b6004846040518082805190602001908083835b60208310614d495780518252602082019150602081019050602083039250614d26565b6001836020036101000a0380198251168184511680821785525050505050509050019150509081526020016040518091039020600301805480919060019003614d92919061584f565b505b50505050565b604051806020016040528060008152506004826040518082805190602001908083835b60208310614de05780518252602082019150602081019050602083039250614dbd565b6001836020036101000a03801982511681845116808217855250505050505090500191505090815260200160405180910390206004019080519060200190614e2992919061553c565b5060008090505b6004826040518082805190602001908083835b60208310614e665780518252602082019150602081019050602083039250614e43565b6001836020036101000a0380198251168184511680821785525050505050509050019150509081526020016040518091039020600301805490508110156152d15760606004836040518082805190602001908083835b60208310614edf5780518252602082019150602081019050602083039250614ebc565b6001836020036101000a03801982511681845116808217855250505050505090500191505090815260200160405180910390206003018281548110614f2057fe5b906000526020600020018054600181600116156101000203166002900480601f016020809104026020016040519081016040528092919081815260200182805460018160011615610100020316600290048015614fbe5780601f10614f9357610100808354040283529160200191614fbe565b820191906000526020600020905b815481529060010190602001808311614fa157829003601f168201915b5050505050905060008214156150bc57615037614fdb60016146dc565b6040518060400160405280600281526020017f3a2000000000000000000000000000000000000000000000000000000000000081525083604051806020016040528060008152506040518060200160405280600081525061480f565b6004846040518082805190602001908083835b6020831061506d578051825260208201915060208101905060208303925061504a565b6001836020036101000a038019825116818451168082178552505050505050905001915050908152602001604051809103902060040190805190602001906150b692919061553c565b506152c3565b6152426004846040518082805190602001908083835b602083106150f557805182526020820191506020810190506020830392506150d2565b6001836020036101000a03801982511681845116808217855250505050505090500191505090815260200160405180910390206004018054600181600116156101000203166002900480601f0160208091040260200160405190810160405280929190818152602001828054600181600116156101000203166002900480156151bf5780601f10615194576101008083540402835291602001916151bf565b820191906000526020600020905b8154815290600101906020018083116151a257829003601f168201915b50505050506040518060400160405280600181526020017f2c00000000000000000000000000000000000000000000000000000000000000815250615206600186016146dc565b6040518060400160405280600281526020017f3a200000000000000000000000000000000000000000000000000000000000008152508561480f565b6004846040518082805190602001908083835b602083106152785780518252602082019150602081019050602083039250615255565b6001836020036101000a038019825116818451168082178552505050505050905001915050908152602001604051809103902060040190805190602001906152c192919061553c565b505b508080600101915050614e30565b5050565b606081600115156004826040518082805190602001908083835b6020831061531257805182526020820191506020810190506020830392506152ef565b6001836020036101000a038019825116818451168082178552505050505050905001915050908152602001604051809103902060000160009054906101000a900460ff161515146153cb576040517f08c379a00000000000000000000000000000000000000000000000000000000081526004018080602001828103825260158152602001807f5061636b61676520646f65736e2774206578697374000000000000000000000081525060200191505060405180910390fd5b60606004846040518082805190602001908083835b6020831061540357805182526020820191506020810190506020830392506153e0565b6001836020036101000a0380198251168184511680821785525050505050509050019150509081526020016040518091039020600301805480602002602001604051908101604052809291908181526020016000905b82821015615515578382906000526020600020018054600181600116156101000203166002900480601f0160208091040260200160405190810160405280929190818152602001828054600181600116156101000203166002900480156155015780601f106154d657610100808354040283529160200191615501565b820191906000526020600020905b8154815290600101906020018083116154e457829003601f168201915b505050505081526020019060010190615459565b5050505090508060018251038151811061552b57fe5b602002602001015192505050919050565b828054600181600116156101000203166002900490600052602060002090601f016020900481019282601f1061557d57805160ff19168380011785556155ab565b828001600101855582156155ab579182015b828111156155aa57825182559160200191906001019061558f565b5b5090506155b8919061587b565b5090565b828054600181600116156101000203166002900490600052602060002090601f016020900481019282601f106155f55780548555615632565b8280016001018555821561563257600052602060002091601f016020900482015b82811115615631578254825591600101919060010190615616565b5b50905061563f919061587b565b5090565b8280548282559060005260206000209081019282156156a25760005260206000209182015b828111156156a157828290805460018160011615610100020316600290046156919291906155bc565b5091600101919060010190615668565b5b5090506156af91906158a0565b5090565b50805460018160011615610100020316600290046000825580601f106156d957506156f8565b601f0160209004906000526020600020908101906156f7919061587b565b5b50565b508054600082559060005260206000209081019061571991906158a0565b50565b81548183558181111561574357818360005260206000209182019101615742919061587b565b5b505050565b828054600181600116156101000203166002900490600052602060002090601f016020900481019282601f1061578957805160ff19168380011785556157b7565b828001600101855582156157b7579182015b828111156157b657825182559160200191906001019061579b565b5b5090506157c4919061587b565b5090565b828054600181600116156101000203166002900490600052602060002090601f016020900481019282601f10615801578054855561583e565b8280016001018555821561583e57600052602060002091601f016020900482015b8281111561583d578254825591600101919060010190615822565b5b50905061584b919061587b565b5090565b8154818355818111156158765781836000526020600020918201910161587591906158a0565b5b505050565b61589d91905b80821115615899576000816000905550600101615881565b5090565b90565b6158c991905b808211156158c557600081816158bc91906156b3565b506001016158a6565b5090565b9056fe4f6e6c7920746865206d61696e206f776e6572206f66207468652073746f72652063616e206d616e616765207468652073746f72654f6e6c7920746865206f776e6572206f72206f6620746865207061636b616765206f7220616e2061646d696e20696e207468652073746f72652063616e206d616e61676520746865207061636b616765a265627a7a7231582009dda69e3079a996b4d490d87be9361578f63bb20084a3c672e4c0e3d88dc11564736f6c634300050c0032",
  "source": "/* eslint-disable */\n// tslint:disable-next-line:max-line-length\n\n pragma solidity ^0.5.6;\n\nimport { SafeMath } from \"../libraries/SafeMath.sol\";\n\n\ncontract PackageStore {\n\nusing SafeMath for uint256;\n\n    event newPackageEvent(string fileName, string fileVersion);\n\n    event newPackageVersionEvent(string fileName, string fileVersion);\n\n    event EditPackage (string oldName, string fileName, string imgHash);\n\n    event editPackageVersionEvent (string fileName, string fileVersion);\n\n    event deletePackage(string fileName);\n\n    event deletePackageVersion (string fileName, string fileVersion);\n\n    address private mainOwner;\n\n    address[] adminsIndexes;\n\n    mapping (address => bool) private admins;\n    \n\n    string[] mappingKeys;\n\n    mapping (string => Package) private packages;\n\n    mapping (address => bool) private lockedOut;\n\n\n    constructor () public{\n\n        mainOwner = msg.sender;\n    }\n\n  struct Package {\n\n        bool exists;\n\n        string imgHash;\n\n        address owner;\n\n        string[] versions;\n\n        string versionsString;\n\n        mapping (string => File) versionsFiles;\n    }\n\n    struct File {\n\n        string fileHash;\n        string fileVersion;\n        uint date;\n        bool exists;\n    }\n\n\n\n    modifier isNewPackageName (string memory _fileName) {\n\n        require(!(packages[_fileName].exists == true), \"Package already exists\");\n    _;\n    }\n\n    modifier isMainOwner() {\n\n        require(mainOwner == msg.sender, \"Only the main owner of the store can manage the store\");\n    _;\n    }\n\n    modifier isNewAdmin(address _admin) {\n\n       require(admins[_admin] == false, \"Only the main owner of the store can manage the store\");\n    _;\n    }\n\n    modifier isAnOwnerOrAnAdmin (string memory _fileName) {\n\n        require(packages[_fileName].owner == msg.sender\n        || isAnOwnerOrAdminOrUser(msg.sender) == 1 || isAnOwnerOrAdminOrUser(msg.sender) == 0,\n         \"Only the owner or of the package or an admin in the store can manage the package\");\n    _;\n    }\n\n    modifier isNotContractAndNotLockedOut(address _a){\n\n        uint len = 0;\n\n        //Not a real error\n        assembly { len := extcodesize(_a) }\n        require(len == 0 && lockedOut[_a] == false);\n        _;\n    }\n\n\n    modifier packageExists (string memory _fileName) {\n\n        require(packages[_fileName].exists == true, \"Package doesn't exist\");\n\n    _;\n    }\n\n    modifier isNewVersion (string memory _fileName,  string memory _fileVersion) {\n\n        require(packages[_fileName].versionsFiles[_fileVersion].exists != true, \"Version does exist\");\n\n    _;\n    }\n\n    modifier DoesVersionExists (string memory _fileName, string memory _fileVersion) {\n\n        require(packages[_fileName].versionsFiles[_fileVersion].exists == true, \"Version doesn't exist\");\n    _;\n    }\n\n    function isAnOwnerOrAdminOrUser() public view returns (uint){\n\n        return isAnOwnerOrAdminOrUser(msg.sender);\n    }\n\n    function isAnOwnerOrAdminOrUser(address _user)  public view returns (uint)  {\n\n            if(mainOwner == _user)\n            {\n                return 0;\n            }\n            else if(admins[_user] == true)\n            {\n                return 1;\n            }\n            else{\n\n                return 2;\n            }\n    }\n\n    function changeMainOwner(address _mainOwner)\n    public isMainOwner(){\n\n        mainOwner = _mainOwner;\n    }\n\n    function addAnAdmin(address _admin)\n    public isMainOwner() isNewAdmin(_admin){\n\n        adminsIndexes.push(_admin);\n\n        admins[_admin] = true;\n    }\n\n    function removeAnAdmin(uint index)\n    public isMainOwner(){\n\n        uint i = index;\n\n        delete admins[adminsIndexes[index]];\n\n        while (i < adminsIndexes.length-1) {\n            adminsIndexes[i] = adminsIndexes[i+1];\n            i++;\n            }\n            adminsIndexes.length--;\n    }\n\n\n    function addNewPackage(string memory _fileHash, string memory _imgHash,\n     string memory _fileName, string memory _fileVersion, uint _date) public\n     isNewPackageName (_fileName) isNotContractAndNotLockedOut(msg.sender){\n\n         lockedOut[msg.sender] == true;\n\n    //require(!(packages[_fileName].exists == true), \"Package already exists\");\n\n        packages[_fileName].owner = msg.sender;\n\n        packages[_fileName].imgHash = _imgHash;\n\n         packages[_fileName].versionsFiles[_fileVersion] = File\n         ({fileHash: _fileHash, fileVersion: _fileVersion, date: _date, exists: true});\n\n        packages[_fileName].exists = true;\n\n        packages[_fileName].versions.push(_fileVersion);\n\n        packages[_fileName].versionsString = strConcat(uint2str(1),\n        \": \", _fileVersion, \"\", \"\");\n\n        mappingKeys.push(_fileName);\n\n        lockedOut[msg.sender] == false;\n\n\n        // emit newPackageEvent(_fileName, packages[_fileName].versionsFiles[_fileVersion].fileHash);\n\n        emit newPackageEvent(_fileName, packages[_fileName].versionsFiles[_fileVersion].fileVersion);\n\n\n       // emit newPackageEvent(1, 2);\n\n    }\n\n        function addNewVersion(string memory _fileHash, string memory _fileName, string memory _fileVersion, uint _date) public\n         packageExists(_fileName) isNewVersion(_fileName, _fileVersion) isAnOwnerOrAnAdmin(_fileName) isNotContractAndNotLockedOut(msg.sender){\n        \n            lockedOut[msg.sender] == true;\n\n            packages[_fileName].versions.push(_fileVersion);\n\n            packages[_fileName].versionsString = strConcat\n            (packages[_fileName].versionsString, \",\", uint2str(packages[_fileName].versions.length), \": \", _fileVersion);\n\n            packages[_fileName].versionsFiles[_fileVersion] = File\n            ({fileHash: _fileHash, fileVersion: _fileVersion, date: _date, exists: true});\n\n            lockedOut[msg.sender] == false;\n\n            emit newPackageVersionEvent(_fileName, _fileVersion);\n    }\n\n\n      function changePackageNameAndImage(string memory _fileName, uint index, string memory _newName,\n        string memory _imgHash, bool saveNewName, bool saveNewImg) public\n     packageExists(_fileName) isNewPackageName (_newName) isAnOwnerOrAnAdmin(_fileName) isNotContractAndNotLockedOut(msg.sender){\n\n         lockedOut[msg.sender] == true;\n        if(saveNewImg)\n        {\n            packages[_fileName].imgHash = _imgHash;\n        }\n\n         if(saveNewName)\n         {\n\n            packages[_newName] = packages[_fileName];\n\n            mappingKeys[index] = _newName;\n\n            delete packages[_fileName];\n         }\n\n        lockedOut[msg.sender] == false;\n        emit EditPackage (_fileName, _newName, _imgHash);\n    }\n\n\n    function deleteAPackage(string memory _fileName, uint index) public\n     packageExists(_fileName) isAnOwnerOrAnAdmin(_fileName) isNotContractAndNotLockedOut(msg.sender){\n\n         lockedOut[msg.sender] == true;\n        delete packages[mappingKeys[index]];\n\n        // delete mappingKeys[index];\n\n        // mappingKeys.length = mappingKeys.length - 1;\n\n        removeByIndex(_fileName, index, true);\n\n        lockedOut[msg.sender] == false;\n\n        emit deletePackage(_fileName);\n    }\n\n\n     function deleteAPackageVersion(string memory _fileName, string memory _fileVersion, uint index) public\n      packageExists(_fileName) DoesVersionExists(_fileName, _fileVersion) isAnOwnerOrAnAdmin(_fileName) isNotContractAndNotLockedOut(msg.sender){\n\n          lockedOut[msg.sender] == true;\n        // delete packages[_fileName].versions[index];\n\n        // packages[_fileName].versions.length = packages[_fileName].versions.length - 1;\n\n        removeByIndex(_fileName, index, false);\n\n        delete packages[_fileName].versionsFiles[_fileVersion];\n\n        constructVersionsString(_fileName);\n\n        lockedOut[msg.sender] == false;\n        emit deletePackageVersion(_fileName, _fileVersion);\n    }\n\n    function removeByIndex(string memory _fileName,  uint index, bool fromPackage) private {\n\n        uint i = index;\n\n        if(fromPackage)\n        {\n\n            while (i < mappingKeys.length-1) {\n            mappingKeys[i] = mappingKeys[i+1];\n            i++;\n            }\n            mappingKeys.length--;\n        }\n            else{\n\n                while (i < packages[_fileName].versions.length-1) {\n                packages[_fileName].versions[i] = packages[_fileName].versions[i+1];\n                i++;\n                }\n                packages[_fileName].versions.length--;\n        }\n\n  }\n\n\n    function getAdminsCount() public view returns (uint256){\n\n        return adminsIndexes.length;\n    }\n\n\n    function getPackagescount() public view returns (uint256){\n\n        return mappingKeys.length;\n    }\n\n\n    function constructVersionsString(string memory _fileName) private {\n\n        packages[_fileName].versionsString = \"\";\n\n        for(uint i = 0; i < packages[_fileName].versions.length; i++)\n            {\n\n            string memory fileVersion = packages[_fileName].versions[i];\n\n            if(i == 0)\n            {\n\n                packages[_fileName].versionsString = strConcat(uint2str(1),\n                \": \", fileVersion, \"\", \"\");\n            }\n\n            else{\n\n            packages[_fileName].versionsString = strConcat\n            (packages[_fileName].versionsString, \",\", uint2str(i+1), \": \", fileVersion);\n\n            }\n        }\n    }\n\n    function getAdmin(uint _index) public view returns (address){\n\n        return adminsIndexes[_index];\n    }\n\n    function getPackageInfo(uint256 index) public view returns\n    (string memory, string memory, string memory, string memory, bool canEdit, address owner){\n        \n        bool userCanEdit = false;\n\n        uint userRoleNumber = isAnOwnerOrAdminOrUser(msg.sender);\n\n        if(userRoleNumber == 0 || userRoleNumber == 1 || packages[mappingKeys[index]].owner == msg.sender){\n\n            userCanEdit = true;\n        }\n\n        return (mappingKeys[index], packages[mappingKeys[index]].imgHash,\n         packages[mappingKeys[index]].versionsString, getPackageLastVersion(mappingKeys[index]), userCanEdit, packages[mappingKeys[index]].owner);\n    }\n\n    // function getPackage(string memory _fileName, string memory _fileVersion) public\n    // packageExists(_fileName)\n    //  view returns(string memory, string memory, uint){\n\n    //     File memory file = packages[_fileName].versionsFiles[_fileVersion];\n\n    //     return (file.fileHash, file.fileVersion, file.date);\n    // }\n\n    function getPackageVersions(string memory _fileName) private\n    packageExists(_fileName)\n    view returns (string memory) {\n\n        string memory tempVersions = packages[_fileName].versionsString;\n\n        return tempVersions;\n    }\n\n      function getPackageLastVersion(string memory _fileName) private\n      packageExists(_fileName)\n      view returns (string memory)\n      {\n\n        string[] memory tempVersions = packages[_fileName].versions;\n\n\n        return tempVersions[tempVersions.length - 1];\n    }\n\n     function getPackageVersionHash(string memory _fileName, string memory _fileVersion) public\n     packageExists(_fileName) DoesVersionExists(_fileName, _fileVersion)\n     view returns (string memory) {\n\n        return packages[_fileName].versionsFiles[_fileVersion].fileHash;\n    }\n\nfunction strConcat(string memory _a, string memory _b, string memory _c, string memory _d, string memory _e)\n     private pure returns (string memory _concatenatedString) {\n        bytes memory _ba = bytes(_a);\n        bytes memory _bb = bytes(_b);\n        bytes memory _bc = bytes(_c);\n        bytes memory _bd = bytes(_d);\n        bytes memory _be = bytes(_e);\n        string memory abcde = new string(_ba.length + _bb.length + _bc.length + _bd.length + _be.length);\n        bytes memory babcde = bytes(abcde);\n        uint k = 0;\n        uint i = 0;\n        for (i = 0; i < _ba.length; i++) {\n            babcde[k++] = _ba[i];\n        }\n        for (i = 0; i < _bb.length; i++) {\n            babcde[k++] = _bb[i];\n        }\n        for (i = 0; i < _bc.length; i++) {\n            babcde[k++] = _bc[i];\n        }\n        for (i = 0; i < _bd.length; i++) {\n            babcde[k++] = _bd[i];\n        }\n        for (i = 0; i < _be.length; i++) {\n            babcde[k++] = _be[i];\n        }\n        return string(babcde);\n    }\n\n    function uint2str(uint _n) private pure returns (string memory _uintAsString) {\n        if (_n == 0) {\n            return \"0\";\n        }\n        uint _i = _n;\n        uint j = _i;\n        uint len;\n        while (j != 0) {\n            len++;\n            j /= 10;\n        }\n        bytes memory bstr = new bytes(len);\n        uint k = len - 1;\n        while (_i != 0) {\n            bstr[k--] = byte(uint8(48 + _i % 10));\n            _i /= 10;\n        }\n        return string(bstr);\n    }\n}",
  "sourcePath": "/Users/faiezaltamimi/Desktop/City, University of London/City PhD/de-app-store-rinkeby/contracts/PackageStore.sol",
  "compiler": {
    "name": "solc",
    "version": "0.5.12+commit.7709ece9.Emscripten.clang"
  },
  "schemaVersion": "3.0.20",
  "updatedAt": "2020-03-23T06:13:20.723Z",
  "networkType": "ethereum",
  "devdoc": {
    "methods": {}
  },
  "userdoc": {
    "methods": {}
  }
}